:020000040800F2
:10000000B8070020D5000008DD000008DF00000868
:1000100000000000000000000000000000000000E0
:10002000000000000000000000000000E1000008E7
:100030000000000000000000E3000008E5000008E8
:10004000DF220008E700000805140008E7000008A8
:10005000E700000865020008E7000008E502000864
:10006000E7000008E7000008E7000008E7000008D4
:10007000E7000008E7000008E7000008E7000008C4
:10008000ED190008E7000008000000007D190008D5
:10009000E700000881190008C1190008E7000008FE
:1000A000E7000008E7000008E7000008BD1E0008A0
:1000B000F91E000800000000E70000080000000032
:1000C0000348854600F02AF800480047392D00080B
:1000D000B80700200448804704480047FEE7FEE7D1
:1000E000FEE7FEE7FEE7FEE701190008C100000891
:1000F00030B50B46014600202022012409E00D46C0
:10010000D5409D4205D31D469540491B2546954047
:1001100040191546521E002DF1DC30BD064C01255C
:10012000064E05E0E36807CC2B430C3C984710349F
:10013000B442F7D3FFF7C8FFD8380008F8380008F2
:10014000002904D0826801231A43826003E0826898
:1001500002231A438260704700B587B0012148022C
:1001600000F02AFF01A800F04DF8002001900120C6
:1001700069460872002003900590069001A9064880
:1001800000F02AF8044800F009F801210248FFF7BE
:10019000D7FF07B000BD00000024014030B5014684
:1001A0000020002200238C680125ED072C438C6081
:1001B00000BF8C68E30FDB07521C0F242403A2420C
:1001C00001D0002BF5D18C68E40FE407002C01D19D
:1001D000086C00E0002030BD10B50022C268084B5A
:1001E0001A400C7964030B6823438C682343CC6862
:1001F00023430C6923434C6923431A43C26010BD57
:1002000003D2FFFF0021016001718160C1600161C3
:100210004161704710B50920C006008A0121C9025A
:10022000084000280ED0642002F066F90920C006BC
:10023000008A0121C9020840002810D00120084985
:1002400008700CE0642002F057F90920C006008A0B
:100250000121C9020840002801D10149087010BDE0
:100260002600002010B5012000F03AF901281DD128
:1002700018480078052803D00120174908700AE0C3
:1002800001201549087002F055FB0620114908703D
:100290000020124908700121114801F0B3FB012030
:1002A00000F002F9012000F005F911E0022000F051
:1002B00017F901280CD102200749087001210848CC
:1002C00001F0A0FB022000F0EFF8022000F0F2F8AD
:1002D00010BD000004000020080000202B000020BA
:1002E0000048014010B5802000F0FAF801280DD137
:1002F0000620694908700121684801F083FB8020CD
:1003000000F0D2F8802000F0D5F8C4E0FF200130E2
:1003100000F0E6F801280FD108205F49087001219C
:100320005E4801F06FFBFF20013000F0BDF8FF20B8
:10033000013000F0BFF8AEE00120400200F0D0F83C
:1003400001280FD10720544908700121534801F0BA
:1003500059FB0120400200F0A7F80120400200F004
:10036000A9F898E00120C00200F0BAF8012851D1A4
:100370004B48007805281BD102F0DCFA322002F04D
:10038000BBF80920C006008A0121C90208400028E4
:1003900008D002F009FF01204249087007204049B7
:1003A00008702EE002F084FC05203D49087028E02A
:1003B0003B480078072812D1322002F09DF809202E
:1003C000C006008A0121C9020840002819D1354918
:1003D000087002F06DFC05203149087011E03220F0
:1003E00002F08AF80920C006008A0121C9020840EB
:1003F000002803D001202B49087002E00020294981
:1004000008700120C00200F04FF80120C00200F087
:1004100051F840E00120400300F062F801280FD1BC
:1004200005201D49087001211C4801F0EBFA01204C
:10043000400300F039F80120400300F03BF82AE0C7
:100440000120800300F04CF801280FD1042012494C
:1004500008700121114801F0D5FA0120800300F055
:1004600023F80120800300F025F814E00120C003E8
:1004700000F036F801280ED1032007490870012149
:10048000064801F0BFFA0120C00300F00DF801207A
:10049000C00300F00FF810BD080000200048014024
:1004A0000400002026000020014948617047000038
:1004B0000004014001494861704700000004014008
:1004C000044805490860002048608860C860034807
:1004D000486170470000940F00040140FFFF6B006B
:1004E000014600200022074B1B680B401A46054BB3
:1004F0005B690B40002B03D0002A01D0012000E0F3
:100500000020704700040140002120498279002A20
:1005100035D00A46126803689A430B461A600A46A9
:10052000526803689A430B465A60027951180A6868
:1005300003681A430A60154A926803689A43134B8A
:100540009A601A46D26803689A43104BDA6042797F
:10055000102A0CD11A46926803681A430B4B9A6012
:100560001A46D26803681A43084BDA600DE007495F
:10057000427951180A6803681A430A6005E0027953
:1005800051180A6803689A430A60704700040140E2
:10059000002806D00649096810221143044A116058
:1005A00005E00349096810229143014A1160704730
:1005B0000020024001460020044A10684008400024
:1005C00002460A431046014A10607047002002406C
:1005D0001CB501212720400400F0BEFC66480090B5
:1005E0000021684601710121C171022141716946F2
:1005F0000920C00600F0CAF807204003009000213F
:10060000684601710121C1710221417169465B484F
:1006100000F0BCF8632000020090002168460171E0
:100620000121C171022141716946554800F0AEF8BF
:10063000802000900021684601710121C1710221D2
:10064000417169464F4800F0A1F8012202214C484F
:1006500000F00AF901220421494800F005F94A484E
:1006600000900121684601710221417100218171D0
:100670006946434800F08AF80120C0030090012138
:1006800068460171022141710021817169463C482F
:1006900000F07CF8402000900121684601710221A1
:1006A0004171012181716946364800F06FF8F020F0
:1006B00000900321684601710221417169460920B9
:1006C000C00600F063F80120009003216846017124
:1006D0000221417169462A4800F058F8032040027F
:1006E000009000216846017102214171C171694683
:1006F0000920C00600F04AF80C200090002168464E
:10070000017102214171C17169460920C00600F0E2
:100710003DF82020009002216846417101710021BE
:1007200081716946164800F031F80122052114480C
:1007300000F074F8FF20013000900221684601713A
:1007400041710021817169460920C00600F01EF840
:10075000022208210920C00600F060F8C0200090A5
:100760000221684641710121017181716946044885
:1007700000F00CF81CBD00000398000000080048C1
:1007800000040048001400481E1C0000F0B50A4692
:1007900000210023002400BF3DE001258D402B46B1
:1007A00015681D402C469C4234D11579012D02D08C
:1007B0001579022D16D185684F000326BE40B5433A
:1007C000856055794E00B5408668354385608588DB
:1007D00001268E40B5438580858896798E40B6B2D5
:1007E0003543858005684F000326BE40B54305604C
:1007F00015794E00B540066835430560C5684F0061
:100800000326BE40B543C560D5794E00B540C668E5
:100810003543C560491C1029BFD3F0BDF0B5002396
:1008200000244D07EE0E1546B5402B46CD10AE0008
:1008300005462035AD594E07F70E0F26BE40B5438D
:10084000CE10B60007462037BD51CD10AE003D4654
:10085000AD591D432C46CD10AD003E467451F0BD40
:100860000185704781617047002A01D0816100E0F5
:100870000185704710B5014600220D4800780D4BE8
:100880001B78984211D00C48094B1B78C05C08704B
:10089000074B1B78581CC3179B0E1B189B119B0101
:1008A000C31A034C2370012200E00022104610BD41
:1008B000DD000020DC0000207403002070B5044639
:1008C00000F0DCF8C42000F0A5F800F02DF8204678
:1008D00000F0A0F800F028F800F0D0F8C52000F0F3
:1008E00099F800F021F800F065F8054600F046F8A8
:1008F00000F0F4F8284670BD70B505460C4600F0CF
:10090000BDF8C42000F086F800F00EF8284600F08C
:1009100081F800F009F8204600F07CF800F004F8B7
:1009200000F0DCF870BD000010B540210F48FFF763
:1009300097FF00F01DF880210C48FFF793FF00F0AF
:1009400017F840210948FFF78DFF00F011F807481C
:10095000008A80210840002801D0012400E0002402
:1009600040210248FFF77CFF204610BD00040048EC
:1009700010B5022001F0E8FD10BD000010B54021C7
:100980000B48FFF76DFFFFF7F3FF80210848FFF7E3
:1009900069FFFFF7EDFF40210548FFF763FFFFF711
:1009A000E7FF40210248FFF75BFFFFF7E1FF10BDC3
:1009B0000004004838B5002480211548FFF752FF95
:1009C000002000901EE06006040E40211048FFF752
:1009D00047FFFFF7CDFF40210D48FFF743FFFFF72B
:1009E000C7FF0B48008A80210840002801D0012061
:1009F000044340210648FFF733FF68460078401C57
:100A0000C1B20091684600780828DCDB204638BD7A
:100A10000004004838B5044600210091009121E00F
:100A200040211548FFF71CFFFFF7A2FF8020204060
:100A3000002804D080211048FFF714FF03E0802134
:100A40000D48FFF70DFF6006040EFFF791FF4021F0
:100A50000948FFF707FFFFF78BFF68460078401C47
:100A6000C1B20091684600780828D9DB40210248CD
:100A7000FFF7F6FE38BD00000004004810B58021E5
:100A80001548FFF7EFFE40211348FFF7EBFEFFF795
:100A90006FFF1148008A002801D1012000E00020EA
:100AA00080210840002801D0002010BD80210A4884
:100AB000FFF7D6FEFFF75CFF0748008A8021084059
:100AC000002801D00020F0E740210348FFF7C8FECE
:100AD000FFF74EFF0120E8E70004004810B5402171
:100AE0000B48FFF7BDFEFFF743FF80210848FFF7E3
:100AF000B7FEFFF73DFF40210548FFF7B3FEFFF7C4
:100B000037FF80210248FFF7ADFEFFF731FF10BD30
:100B1000000400480EB50121084600F04DFAFFF729
:100B2000CFFC0021084600F043FE01200190002187
:100B3000684601720C2141720121817201A8FFF700
:100B4000E3FC0120FFF7B0FC0120FFF7B3FC01211B
:100B5000002000F02DFE0220019000216846017265
:100B60000C2141720121817201A8FFF7CDFC022006
:100B7000FFF79AFC0220FFF79DFC0F21022000F0F6
:100B800017FE0120C00301900021684601720C216C
:100B900041720121817201A8FFF7B6FC0120C00358
:100BA000FFF782FC0120C003FFF784FC0E21022026
:100BB00000F0FEFD012080030190002168460172D3
:100BC0000C2141720121817201A8FFF79DFC0120D7
:100BD0008003FFF769FC01208003FFF76BFC0D2108
:100BE000022000F0E5FD012040030190002168464D
:100BF00001720C2141720121817201A8FFF784FC6E
:100C000001204003FFF750FC01204003FFF752FC96
:100C10000721052000F0CCFD8020019000216846CE
:100C200001720C2141720121817201A8FFF76CFC55
:100C30008020FFF739FC8020FFF73CFC09210120D0
:100C400000F0B6FD012040020190002168460172CB
:100C50000C2141720121817201A8FFF755FC01208E
:100C60004002FFF721FC01204002FFF723FC08218E
:100C7000012000F09DFDFF20013001900021684619
:100C800001720C2141720121817201A8FFF73CFC25
:100C9000FF200130FFF708FCFF200130FFF70AFCBE
:100CA0000B21002000F084FD0120C00201900021F2
:100CB00068460172102141720121817201A8FFF77B
:100CC00023FC0120C002FFF7EFFB0120C002FFF769
:100CD000F1FB0521684601700221417001218170FC
:100CE00000F09AF807216846017002214170012145
:100CF000817000F091F80EBD002805D111490988D6
:100D0000491E104A118004E00E490988491C0D4A09
:100D100011800C490988042908DD0A49098811292C
:100D200004DA08490988084A91630AE005490988F4
:100D3000052903DA0521034A118002E01021014A46
:100D40001180704728000020000400401CB50121DC
:100D50002720400400F000F9284800900021684650
:100D600001710121C17169460920C006FFF70EFD1E
:100D7000234800900021684601710121C171694634
:100D80002048FFF703FD072040030090002168463C
:100D900001710121C17169461B48FFF7F7FC8020F2
:100DA00000900021684601710121C1716946174810
:100DB000FFF7ECFC16480090002168460171022103
:100DC000C17169460920C006FFF7E0FC1148009098
:100DD0000021684601710221C17169460948FFF787
:100DE000D5FC432000900021684601710221C171A9
:100DF00069460648FFF7CAFC1CBD000003800000DE
:100E0000C6630000000400480008004800140048C1
:100E1000FC1F0000399C000000218278002A27D0A6
:100E2000184A03231B02D21803789B109B00D15849
:100E300002789207D30EFF229A400B46934319463D
:100E400042789207120E03789B07DB0E9A401143FB
:100E50000C4A03231B02D21803789B109B00D1502D
:100E60000278D306DB0E01229A40064B1A6007E097
:100E70000278D306DB0E01229A40024B80331A60BF
:100E80007047000000E100E0002807D0074909682A
:100E9000FF2201321143054A116006E00349096847
:100EA000FF2201329143014A1160704700700040F7
:100EB00010B5024600200D4B1868800880000346DC
:100EC00013431846094B1860094B1B69042423433C
:100ED000074C2361012901D130BF00E020BF044B42
:100EE0001B690424A343024C236110BD0070004021
:100EF00000ED00E010B5002000F0B4FA0649884289
:100F000006D0002000F0C8FB04200449087002E06D
:100F100004200249087010BDAA5555AA04000020FB
:100F20000C4949680122920391430A4A51601146D3
:100F3000496882B21143074A51601146096B921504
:100F40009143044A11631146096B020C1143014A93
:100F50001163704700100240002905D0054A52690C
:100F60000243044B5A6104E0024A52698243014B36
:100F70005A61704700100240002905D0054AD26925
:100F80000243044BDA6104E0024AD2698243014B16
:100F9000DA61704700100240002905D0054A126945
:100FA0000243044B1A6104E0024A12698243014B76
:100FB0001A61704700100240002905D0054A926965
:100FC0000243044B9A6104E0024A92698243014B56
:100FD0009A61704700100240002905D0054AD26886
:100FE0000243044BDA6004E0024AD2688243014BB8
:100FF000DA6070470010024010B500F01FF80120C1
:1010000000F040F900BF012000F008F90028FAD0F4
:101010000120FFF7BDFA0120FFF7CCFA002000F015
:1010200021F9002000F052F9002000F07DF90020A5
:10103000FFF776FF012000F085F910BD1948006820
:1010400001210843174908600846406816490840CE
:10105000144948600846006814490840114908606E
:10106000084600680121890488430E490860084643
:1010700040683F21090488430A4948600846C06A1D
:1010800000090001C8620846006BFF215431884303
:10109000044908630846406B40084000486300204C
:1010A00088607047001002400CB8FFF8FFFFF6FEA2
:1010B000FEB5044600250026002001900090002780
:1010C000504840680C2108400546002D04D0042DEE
:1010D00005D0082D28D105E04B48206027E04A487C
:1010E000206024E0474840680F21890408400646F4
:1010F000444840680121090408400190B00C861C56
:101100000198002803D14148704320600BE03D481E
:10111000C06A0007000F401C00903B480099FEF792
:10112000E7FF7043206002E03748206000BF00BF47
:1011300034484068F021084005462D093448475D91
:101140002068F84060602F48406807210902084085
:1011500005462D0A2E48475D6068F840A060294882
:10116000006BFF2101310840884202D02948E0602D
:101170000DE024484068012189030840884203D0DB
:10118000A0684008E06002E0A0688008E0601D48B8
:10119000006B40210840402802D01F48206102E037
:1011A0000120C00320611748006B1021084010285F
:1011B00002D01548606101E0206860611148006B51
:1011C0008007800F002802D1A068A06119E00D48B7
:1011D000006B8007800F012802D12068A06110E019
:1011E0000848006B8007800F022802D18003A061AD
:1011F00007E00448006B8007800F032801D10248F4
:10120000A061FEBD0010024000127A0000093D00FE
:10121000B4000020809FD5001280000010B5024667
:101220000021002300205111002902D10C4C236819
:101230000BE0012902D10A4C236A06E0022902D1FF
:10124000074C636A01E0064C636BD106C90E0124AA
:101250008C401C40002C01D0012000E0002010BD7B
:101260000010024001460020054A5068F023024663
:101270009A43104602460A431046014A506070479E
:1012800000100240002806D00649096801221143D7
:10129000044A116005E00349096849084900014A08
:1012A0001160704700100240002806D00649496AC4
:1012B00001221143044A516205E00349496A490881
:1012C0004900014A51627047001002400146002067
:1012D000064A506807231B0202469A4310460246FC
:1012E0000A431046014A5060704700000010024057
:1012F000002807D00749096A0122D2031143054A91
:10130000116206E00349096A0122D2039143014AAE
:1013100011627047001002400249096A0143014A04
:10132000116270470010024001460020044A5068D4
:101330008008800002460A431046014A5060704708
:10134000001002400549096B89088900034A1163AE
:101350001146096B01431163704700000010024001
:10136000014600BFF020084000110A2358430246FE
:101370000807000F8018C0B270470146002204E041
:10138000501CC2B208460A38C1B20A29F8DA10075E
:10139000000E08437047000008B5002200920020AC
:1013A0000021124AD26840231A40002A1BD1421E53
:1013B0000E4BDA6000BF0D4AD26840231A40114636
:1013C000009A521C00921B02009A9A4201D00029F6
:1013D000F1D0064AD26840231A40002A01D00120E9
:1013E00002E0002000E0012008BD000000280040CD
:1013F0000348C068802188430149C86070470000E5
:101400000028004010B501F0CFFE10BD30B50446F5
:101410000025CA201249486253204862FFF7BCFFEA
:10142000002800D117E00E488068402188430C490D
:101430008860084680682168084309498860A06878
:10144000086108460069A188090408430449086145
:10145000FFF7CEFF0125FF2001494862284630BD35
:101460000028004008B50146002000900448009084
:101470008800009A801800900098006808BD00005D
:1014800050280040F8B505460C4600260020009084
:10149000002D08D1607810210840102803D1607811
:1014A00088430A306070002D00D108E06078FFF7B3
:1014B00057FF0646A078FFF753FF064600BF002DF2
:1014C0000BD0E0780004617809020843A178084352
:1014D000217849030843064610E0E078FFF74DFF06
:1014E00007046078FFF749FF00020743A078FFF781
:1014F00044FF07432078400307433E46CA20134970
:10150000486253204862FFF747FF002801D100904E
:1015100016E00F4830400D494860FFF769FF0B485F
:10152000806820210840002808D100F07FF80028BA
:1015300001D1009004E00120009001E00120009022
:10154000FF20024948620098F8BD000000280040D2
:101550003FFFFF00F8B505460C460026002000902E
:10156000002D0AD12F48806840210840002800D073
:1015700002E00020E07000BF0EE02A4880684021B1
:101580000840002804D02078FFF7EAFE064602E073
:101590000020E07000BF00BF002D0BD020780004B9
:1015A000617809020843A1780843E17809040843F7
:1015B000064610E02078FFF7E0FE07046078FFF7AA
:1015C000DCFE00020743A078FFF7D7FE0743E07870
:1015D000000407433E46CA2012494862532048622D
:1015E000FFF7DAFE002801D1009016E00E483040E7
:1015F0000C490860FFF7FCFE0A488068202108407B
:10160000002808D100F012F8002801D1009004E071
:101610000120009001E001200090FF200149486274
:101620000098F8BD002800407F7F7F0008B50022A9
:10163000009200200021174A926820231A40002AB5
:1016400001D0012025E0CA22124B5A6253225A626D
:101650001A46D268A0239A430E4BDA6000BF0D4AA7
:10166000D26820231A401146009A521C00929B0215
:10167000009A9A4201D00029F1D0064AD26820236C
:101680001A40002A01D0012000E00020FF22014B77
:101690005A6208BD0028004008B500220092044AA2
:1016A00000928200009BD2180092009A116008BD3F
:1016B0005028004010B5012202211D48FFF7D4F840
:1016C000012204211A48FFF7CFF8002019490870B9
:1016D000487048801849087048704880174800884A
:1016E000102188431549088000BF002208211048B6
:1016F000FFF7BAF8002210210D48FFF7B5F800BF38
:1017000001200F49087000200E4908700E4908702A
:1017100000220121C9030648FFF7A6F80122402153
:101720000A48FFF7A1F80121094800F06BF910BD44
:10173000000400481E000020220000202004004079
:101740001C000020060000201600002000140048A5
:10175000004401400EB50020FFF784FE1349884283
:1017600022D001210807FFF707FC0120FFF78CFBBF
:101770000120FFF799FD00BF4120FFF74FFD002832
:10178000FAD001204002FFF7C7FD0120FFF7B0FDAE
:10179000FFF74CFF63200190FF2090300290002063
:1017A00000906846FFF732FE0EBD0000AA5555AA0C
:1017B00030B500228B071C0F0F23A3401A460B4B9A
:1017C0008C10A4001B599343084C8D10AD0063513D
:1017D00023468C10A4001B598C07250F0446AC40EF
:1017E0002343024C8D10AD00635130BD0800014011
:1017F0000CB50020019000903548006801210904D3
:1018000008433349086000BF31480068012149049A
:10181000084000900198401C01900098002804D1D5
:101820000521090301988842EED129480068012169
:1018300049040840002802D00120009001E0002067
:1018400000900098012842D12248006810210843E6
:101850002049086008460068012108431D490860C6
:101860001B4840681A494860084640684860084676
:1018700040683F210904884315494860084640688C
:1018800011210904084312494860084600680121F3
:10189000090608430E49086000BF0D480068012191
:1018A000490608400028F8D00948406880088000B0
:1018B00007494860084640680221084304494860D7
:1018C00000BF034840680C2108400828F9D10CBD2E
:1018D0000010024000200240012080F3108800BF69
:1018E00000BFBFF34F8F04480449C860BFF34F8F58
:1018F00000BF00BFFEE700000400FA0500ED00E0B5
:1019000010B51B48006801210843194908600846C2
:10191000406818490840164948600846006816495A
:10192000084013490860084600680121890488437B
:101930000F490860084640683F21090488430C4964
:1019400048600846C06A00090001C8620846006B8A
:10195000FF2154318843064908630846406B40081C
:101960004000486300208860FFF742FF10BD000080
:10197000001002400CB8FFF8FFFFF6FE70470000B1
:1019800010B501210B4800F039F801F039FD0A4883
:101990004088002804D008488088401C0649888078
:1019A00006484088002804D004488088401C034929
:1019B000888010BD004401402C000020320000202F
:1019C00010B50121074800F019F800F001FF0649A1
:1019D000487008464078002803D00021014800F0F4
:1019E00011F810BD004801400800002010B5012189
:1019F000014800F003F810BD00040040CA43028211
:101A000070470000002904D0028801231A43028095
:101A100003E00288014B1A4002807047FEFF00007D
:101A2000002907D04422125A0123DB031A4344231E
:101A30001A5205E04422125A53045B0C44221352FA
:101A40007047000010B504463148844208D1012196
:101A5000C014FFF7C1FA0021E014FFF7BDFA56E009
:101A600001208007844208D101210846FFF794FA3B
:101A700000210120FFF790FA49E02648844208D16E
:101A800001210220FFF788FA00210220FFF784FAE3
:101A90003DE02148844208D101211020FFF77CFA63
:101AA00000211020FFF778FA31E01C48844208D169
:101AB00001218015FFF770FA0021A015FFF76CFADD
:101AC00025E01748844209D101210804FFF784FA70
:101AD000002101200004FFF77FFA18E0114884423A
:101AE00009D101214804FFF777FA002101204004C1
:101AF000FFF772FA0BE00C48844208D101218804F8
:101B0000FFF76AFA002101208004FFF765FA10BD93
:101B1000002C014000040040001000400020004064
:101B2000004001400044014000480140002A03D029
:101B300083890B43838102E083898B4383817047D0
:101B400070B5002400220023058C1C4E354005840E
:101B5000028C8388048B194D6F3D2C40B51E2C40A0
:101B60000D882C43751E2A408D892A434D882A43AF
:101B7000134DA84208D0134DA84205D0124DA842DB
:101B800002D0124DA84212D10C4DED1F2A40CD8932
:101B90002A430A4DED1E2A408D882A43074DFF3DFA
:101BA0002B400B4D2B400D8A2B434D8A2B438380BA
:101BB00004838D684563028470BD0000FEFF000051
:101BC000002C014000400140004401400048014019
:101BD000FFFD00000A460021018B034B19400B4614
:101BE0001343194601837047F7FF000070B50024C6
:101BF00000220023058C1E4E35400584028C83880C
:101C0000048B1C4D2C401C4D2C400D782D062D0CAA
:101C10002C43174D103D2A408D892D052D0C2A434C
:101C20004D882D052D0C2A43144DA84219D1104D75
:101C3000703D2A40CD892D052D0C2A430C4D303D99
:101C40002A408D882D052D0C2A430D4D2B400D4D1E
:101C50002B400D8AAD042D0C2B434D8AAD042D0C69
:101C60002B43838004838D688563028470BD0000EC
:101C7000EFFF0000FF8F0000FFFC0000002C014080
:101C8000FFFB0000FFF700000A460021018B034B19
:101C9000194013061B0C194301837047FFF700001E
:101CA00000220288154B984206D001239B079842D8
:101CB00002D0134B984203D1124B1A404B881A435F
:101CC000114B984203D0114B1A400B891A430280E2
:101CD0004B68C3620B880385084B984208D00C4BB5
:101CE000984205D00B4B984202D00B4B984201D141
:101CF0008B7A03860123838270470000002C014009
:101D0000000400408FFF000000100040FFFC0000B6
:101D100000400140004401400048014000B589B046
:101D200001210220FFF728F90121C802FFF744F939
:101D300001214804FFF740F901218804FFF73CF92D
:101D40005748FFF77FFE5748FFF77CFE5648FFF7DE
:101D500079FE5648FFF776FE01216846018300218F
:101D60004183534807906846018408A8817006A9FA
:101D70004C48FFF795FF602168468180FF20F530D1
:101D80000390022168460182C9018182C18201A9B2
:101D90004448FFF7D5FE08214248FFF71BFF012109
:101DA0004048FFF73DFE01213E48FFF72BFE002192
:101DB00068460184418314200790102168460183FE
:101DC000002108A8817006A93548FFF769FF602146
:101DD000684681800C200390002168460182FF2123
:101DE000013181824900C18201A92D48FFF7FEFE21
:101DF00008212B48FFF748FF01212948FFF710FE73
:101E000001212748FFF7FEFD2721684601830021B5
:101E10004183284807906846018408A8817006A974
:101E20002148FFF73DFF00211F48FFF7EBFD15217B
:101E3000684601700321417001218170FEF7ECFFBB
:101E400001211948FFF7DAFD012211461648FFF774
:101E50006DFE2721684601830021418316480790C3
:101E60006846018408A8817006A91048FFF718FF8A
:101E700000210E48FFF7C6FD1621684601700121BA
:101E800041708170FEF7C8FF01210848FFF7B6FDD9
:101E9000012211460548FFF749FE09B000BD0000C8
:101EA00000040040002C0140004401400048014073
:101EB000E70300001F4E00009F0F000010B5002434
:101EC0000A490B4800F055F8002806D0084800F0F1
:101ED0001CF9C4B2204600F021F90649044800F07C
:101EE00029F80249024800F025F810BD0501050057
:101EF000003801400003030010B500240A490B48D4
:101F000000F037F8002806D0084800F0FEF8C4B208
:101F1000204600F099F90649044800F00BF8024900
:101F2000024800F007F810BD05010500004400401C
:101F30000003030010B5002300220B0C01249C4079
:101F40002246026210BD002904D0026801231A4310
:101F5000026003E0026852085200026070470246C5
:101F60000020D3690B40002B01D0012000E00020AD
:101F7000704770B502460B46002400210025002062
:101F80001E04350ED9B201268E403146012D02D1F4
:101F90001668314006E0022D02D15668314001E05A
:101FA000966831401C0C0126A6403446D669344060
:101FB000002903D0002C01D0012000E0002070BDDA
:101FC000F8B5034600240026009600250020184698
:101FD0000E04340ECEB200960127009EB7403D4657
:101FE000022C01D1001D02E0032C00D10830002A90
:101FF00003D006682E43066002E00668AE43066022
:10200000F8BD0000F0B589B005460E46002400205A
:10201000089000BF00BF28684008400028606C6836
:1020200003210903204688430446B06804436C60DA
:102030002C682F480440F1687068084331690843F0
:1020400004432C60AC6803210902204688430446FF
:1020500070690443AC606846FFF72AF8254885425A
:1020600002D10698089001E00298089028680121A2
:10207000C9030840002809D0326851001923089A82
:102080005A431046FEF734F8074608E032689100DC
:102090001923089A5A431046FEF72AF80746642186
:1020A0003846FEF725F80401200964214843381A10
:1020B000079028680121C903084000280AD0079921
:1020C000C900084632306421FEF712F84007400F7D
:1020D000044309E007990901084632306421FEF7FC
:1020E00007F80007000F0443AC8109B0F0BD000001
:1020F000F3E9FFFF00380140826801231B039A4384
:10210000826082680A43826070470146888CC005FD
:10211000C00D7047CA05D20D0285704701460D4BB0
:102120001B78581CC3179B0E1B189B119B01C31ACD
:10213000DAB209480078824206D00848054B1B787D
:10214000C1540448027004E005480068401C044B78
:1021500018607047DC000020DD00002074030020C0
:10216000E000002010B504460749084800F000FFD1
:10217000032000F0C1F90649034800F028FF0320BE
:1021800000F0BAF910BD0000980000207C0000208B
:102190000537000810B50249024800F0E3FD10BD04
:1021A000980000207C00002000B589B00121880340
:1021B000FEF702FF032040020090022168460171F1
:1021C00041710021817169460920C006FEF7DEFADF
:1021D00001220921C806FEF721FB01220A2109205C
:1021E000C006FEF71BFBE120400203900020049094
:1021F000059006900C2007900020089003A9104835
:10220000FFF700FF1B216846017200214172012186
:10221000817202A8FEF700FE01220A490848FFF772
:10222000CFFE08490648FFF785FE0121090304484F
:10223000FFF762FF01210248FFF785FE09B000BDEC
:10224000003801400501050001460D4B1B78581C64
:10225000C3175B0E1B18DB11DB01C31ADAB2094886
:102260000078824206D00848054B1B78C1540448C8
:10227000027004E005480068401C044B1860704779
:10228000D4000020D5000020F4020020D800002057
:1022900010B504460449054800F072FE044902489E
:1022A00000F095FE10BD00006000002044000020FA
:1022B0002537000810B50249024800F053FD10BD53
:1022C000980000207C00002010B50121C802FEF714
:1022D00063FE00210120C002FEF75EFE10BD7047C4
:1022E0000EB501210846FEF767FEFEF7E9F800216A
:1022F0000846FFF75DFA012001900021684601724F
:102300000C2141720121817201A8FEF7FDF8012024
:10231000FEF7CAF80120FEF7CDF80B210020FFF7E9
:1023200047FA0120C0020190002168460172102185
:1023300041720121817201A8FEF7E6F80120C00276
:10234000FEF7B2F80120C002FEF7B4F80521684696
:1023500001700221417001218170FEF75DFD0721AE
:10236000684601700221417001218170FEF754FD21
:102370000EBD30B47446641E2578641CAB4204D391
:10238000635D5B00E31830BC18471D46F8E702E0C8
:1023900008C8121F08C1002AFAD1704770470020F0
:1023A00001E001C1121F002AFBD1704710B50620C1
:1023B000FEF784FA04020720FEF780FA0443204661
:1023C00010BD10B50420FEF779FA0446204610BD72
:1023D00010B50220FEF772FA04020320FEF76EFA2F
:1023E0000443204610BD000010B5FFF7F1FF084977
:1023F0004880084640880749884205D200F058FCCA
:1024000005200549087002E004200349087010BD4A
:102410000E0000208B2B00000400002010B50320CC
:10242000134908701348008A0121890308400028D5
:1024300005D10F480078FE2108400D4908700D486D
:10244000008A012149030840002805D10848007886
:10245000FD21084006490870FFF7A8FF4004400C22
:1024600003498880FFF7B4FF0149488010BD000090
:102470000E0000200004004808B509E000F0E6F86E
:1024800068460178054800F0CBFD044800F02CFEBA
:102490006846FEF7EFF90128F0D008BD7C00002067
:1024A00010B50446E006010E0820FEF725FA10BD1F
:1024B00010B50446E006010E0A20FEF71DFA10BD15
:1024C0000A49096904229143084A1161C217520F4F
:1024D00012185205120E064B1A70194609787D2201
:1024E000D2005143034A11807047000000E000E031
:1024F000000000200200002038B5044600200090B3
:102500000F48008860430F4948610020886101201E
:10251000086100BF00F09AF80A480069009000982E
:10252000C007C00F002805D0012109040098084009
:102530000028EFD0002003490861886138BD000001
:102540000200002000E000E038B5044600200090C2
:102550000F48007860430F494861002088610120DE
:10256000086100BF00F072F80A4800690090009806
:10257000C007C00F002805D00121090400980840B9
:102580000028EFD0002003490861886138BD0000B1
:102590000000002000E000E010B50920C006008A1D
:1025A0000121C9030840044625480078002804D0CA
:1025B000012820D003283FD12DE0002C0ED014207C
:1025C000FFF79AFF0920C006008A0121C9030840CD
:1025D000A0420FD101201A4908700BE01948007879
:1025E000022807D118480068401C174908600320DA
:1025F0001349087021E0002C0CD11420FFF77CFF58
:102600000920C006008A0121C9030840A04201D167
:102610000B49087011E0002C0DD01420FFF76CFF5F
:102620000920C006008A0121C9030840A04202D146
:1026300001200349087000E000BF00BF10BD00008A
:102640001600002004000020180000207047000041
:1026500010B503201B4908701B48008A012189031B
:102660000840002805D117480078FE210840154988
:1026700008701548008A012149030840002805D147
:1026800010480078FD2108400E490870FFF7A0FEB1
:102690000C494880FFF795FE04460A488079A0421D
:1026A00003D00848847100F039FE06484088074985
:1026B000884206D200F0A2FF00F0FAFA0520044991
:1026C000087010BD0E000020000400488B2B000095
:1026D0000400002010B502460C4661681300FFF7A5
:1026E00048FE0805070A0D101316191C104814E0BF
:1026F0000F48183011E00E4830300EE00C484830DA
:102700000BE00B48603008E009486C3005E00848F1
:10271000743002E006487C3000BF00BF03E00B7855
:102720000370491C401C0B78002BF8D110BD000031
:10273000F000002010B504460F484088401C80B2CD
:102740000D494880A04216D10020488008464078B4
:10275000012808D1012204210848FEF785F800204D
:102760000549487007E0002204210448FEF77CF880
:1027700001200149487010BD2200002000040048DB
:1027800010B50446606800780300FFF7F2FD0D1BEA
:1027900008090A0B0C0D0E0F101112131B0012E08A
:1027A00011E010E00FE00EE00DE00CE00BE00AE0BD
:1027B00009E008E000F08AFF00F07AFA05200349FA
:1027C000087000E000BF00BF10BD00000400002042
:1027D00070B5002551480078012805D10920C006B0
:1027E000008AC407E40F46E04C480078022805D16F
:1027F0000920C006048A02210C403CE047480078CA
:10280000032805D14648048A0121C9030C4032E05F
:1028100042480078042805D14148048A01218903EF
:102820000C4028E03D480078052805D13C48048A42
:10283000012149030C401EE038480078062804D1E5
:102840003848048A80210C4015E034480078072875
:1028500005D13548048A012149020C400BE02F487C
:102860000078082805D13048048AFF2101310C4046
:1028700001E0284670BD2D480078002804D00128CA
:1028800008D0022846D114E0002C02D101202749AB
:10289000087040E0002C08D1002025490880022063
:1028A0002249087000F06CFC02E000201F4908700B
:1028B00031E0002C04D0012500201C49087028E0DC
:1028C0001648007801280FD01448007802280BD051
:1028D00012480078042807D010480078062803D052
:1028E0000E480078072810D111480088401C80B29B
:1028F0000F490880462804DD032500200B49087095
:1029000007E002200949087003E00125002007497B
:10291000087000E000BF00BF2846ABE708000020B9
:10292000000800480014004800040048D1000020BE
:10293000D200002010B5FEF75FFB0820FFF7C0FDB6
:10294000FFF7ECF910BD000010B591484078002861
:102950007CD090480078012803D08D480078012869
:1029600075D18B4800780300FFF703FD09F8063A9C
:1029700060748AA0D4E8F80085484078012813D113
:102980008548007800282AD184480078022803D19D
:102990000A207F49887022E08048007801281ED1F3
:1029A0000B207B4988701AE079484078032816D1BB
:1029B0007A480078062803D10120794908700EE092
:1029C00074480078012803D10C207149887001E017
:1029D00000F07CFE00F06CF9052070490870C7E03B
:1029E0006B48407801280BD16C480078022803D04E
:1029F0006A480078012818D103206549887014E0DE
:102A000063484078032810D16348007800280CD12F
:102A100062480078012802D15D49887005E05F486E
:102A20000078022801D15A498870A1E058484078BE
:102A300001280DD159480078022803D05748007862
:102A4000012806D104205249887002E095E090E008
:102A500000BF8DE04E48407801280FD14F480078E4
:102A6000012803D107204A49887008E04B480078C4
:102A7000022804D10020FEF73FF900E000BF77E014
:102A80004348407801280FD144480078012803D1F9
:102A900008203F49887008E040480078022804D1A7
:102AA0000120FEF729F900E000BF61E038484078D6
:102AB00001282ED13948007802282AD139480078D7
:102AC00001280FD100BF012208213748FDF7CCFEB5
:102AD000002210213448FDF7C7FE00BF0220314913
:102AE000087016E02F480078022803D100202D49F5
:102AF00008700EE000BF012210212B48FDF7B4FE44
:102B0000002208212848FDF7AFFE00BF012025491B
:102B100008702DE01E48407801280ED01C484078EF
:102B200003280AD11D480078012806D11A480078E8
:102B3000002802D109201649887019E0144840780D
:102B4000012813D11548007802280FD112480078C7
:102B5000002804D105200E49887007E007E00E48E0
:102B60000078202802D106200949887000E000BFC3
:102B700000BF00200649087048700548807800288A
:102B800004D000F0B3FB00200149887010BD0000A4
:102B9000080000200600002005000020040000209E
:102BA0002B0000201C00002000040048364800785C
:102BB00000280FD035480078012803D033488079A9
:102BC0005F2803DD0020324908701CE002203049F4
:102BD000087018E02F48807A002803D001202C4983
:102BE000087010E0294840882B49884203D900200A
:102BF0002749087007E0254840882849884202D2C2
:102C00000420234908702348807A002803D000203C
:102C10002349087036E02348007807280FD11B4865
:102C20000078012803D0194880795F2803DD01204E
:102C30001B49087026E000201949087022E01A4854
:102C40000078302803D10320154908701AE016488F
:102C50000078102803D104201149087012E01248AE
:102C60000078202803D104200D4908700AE00F489D
:102C70000078002803D102200949087002E00120F1
:102C80000749087070470000260000200E00002051
:102C90001E000020E40000201B2E0000D32C0000AA
:102CA0002200002004000020050000200600002073
:102CB00010B500200849487048800849487048808D
:102CC000012202210648FDF7CFFD0122042104481C
:102CD000FDF7CAFD10BD00001E00002022000020EC
:102CE0000004004810B51148007801280BD100BF3E
:102CF000012210210E48FDF7B7FD002208210C48E3
:102D0000FDF7B2FD0BE000BF012208210848FDF7E6
:102D1000ABFD002210210648FDF7A6FD00BF0548C7
:102D20000088102108430349088010BD1C000020C2
:102D3000000400482004004000F0A0FA00BF00F0AA
:102D40003FFCFCE7F8B505460E461746002400BFD9
:102D500004E0FFF77BFC305D2855641CBC42F8D3CF
:102D6000F8BD000070B505460C467748408800283D
:102D700009D075480078A978884204D100207249AA
:102D8000488008708880A878B1380300FFF7F1FA0E
:102D900009060A1011273A5E8AADD9002846FFF7C6
:102DA000EFFCCFE0294669480078FFF793FCC9E0C3
:102DB000C8E0062266486968FFF7C4FF644800F06F
:102DC000F7FAFEF733FCB420A0700420208061499C
:102DD000614800F0FCF8012060490870B2E0002072
:102DE0005E490870B520A0700420208059495A48D7
:102DF00000F0EDF800205949087059490870594908
:102E000048809FE0B620A07068680078616808700C
:102E1000052020805448007800280AD1686800788E
:102E2000012803D102205149087002E001204F49D6
:102E300008700120494908704649474800F0C7F822
:102E4000002047490870474948807BE0B720A070C0
:102E500068680078616808700520208068680078DC
:102E6000012812D141480078022813D13C4800784B
:102E700000280FD110203A490870B720394908704E
:102E8000002088800120488004E000203449087038
:102E9000344948800120314908702E492E4800F0FD
:102EA00096F84FE0B820A0706868007861680870F4
:102EB000052020806868007801280BD12B48007815
:102EC00002280AD126480078002806D1202024496B
:102ED000087002E000202249087001201F49087094
:102EE0001C491D4800F073F82CE0B920A0706868F8
:102EF00000786168087005202080686800780128E3
:102F000012D11A480078022813D0154800780028FA
:102F10000FD1302012490870B920124908700020E2
:102F200088800120488004E000200D4908700D4988
:102F300048800120094908700649074800F047F811
:102F400000E000BF00BF70BD2C0000203A00002050
:102F50003C000020053700089800002006000020F3
:102F60000500002032000020260000200400002080
:102F70000A228A70027C4B681A7005220A80704708
:102F80000A228A70027C4B681A7005220A807047F8
:102F900002460020FF20002104E0535C1B1898B279
:102FA0004B1C99B20329F8DB002105E053685B5CF8
:102FB0001B1898B24B1C99B213881B1F8B42F5DC6F
:102FC000704700210174C160417201727047FEB503
:102FD00006460C463046FFF7DBFF074638120090E6
:102FE000F8B201905520A047AA20A047002503E091
:102FF000705DA047681C85B2032DF9DB002504E055
:103000007168485DA047681C85B23088001FA842DF
:10301000F6DC0198A0470098A0470D20A047FEBD10
:1030200070B504460D46E06803282ED3E068411CC5
:10303000C01EE16061680D542088801CE1688142F7
:1030400050D3E068001F6168085C0D281AD1E06861
:10305000401F6168085C0102E068801F6268105CC4
:10306000081886B22046FFF793FFB04207D1207AB6
:1030700002218843801C20720020207470BD04202F
:103080002074FBE705202074F8E7207AC007C00F02
:1030900000280CD0E168481CE0606554E068022814
:1030A00020D3208880281DDD02202074E6E7AA2D89
:1030B00013D1607A55280DD1207A40084000401C79
:1030C0002072207A02218843207200202074E06060
:1030D0006572D3E701202074D0E7552D01D16572C8
:1030E000CCE7CBE700BFC9E710B50446207C002839
:1030F0000AD1207A8007C00F00280BD06069804772
:103100002046FFF75EFF05E0207CA1698847204646
:10311000FFF757FF10BD00001CB50446A0B2019098
:1031200012E0FFF793FA0B48009004E0684600882D
:10313000401E81B20091684600880028F6DC68468F
:103140008088401E81B20191684680880028E8DCB2
:103150001CBD0000E411000010B5084800880121E2
:1031600008430649088019204001FFF7C5F90348C4
:103170000088400840000149088010BD202C014013
:1031800010B508480088012108430649088014202A
:10319000FFF7B2F903480088400840000149088061
:1031A00010BD0000202C01400EB5052168460172BB
:1031B000022141720021817202A8FDF72DFE01213A
:1031C00003204004FDF7C8FE0120C002009000214A
:1031D00068460171C17169460920C006FDF7D6FA3B
:1031E00010480090012168460171022141710021BF
:1031F000817169460C48FDF7C9FAC0200090022190
:103200006846417101210171817169460648FDF7E7
:10321000BDFA0020FFF74CF901210448FEF7F2FB4C
:103220000EBD0000060400000004004800440140F8
:1032300010B504460F484088401C80B20D494880B4
:10324000A04216D10020488008464078012808D1C5
:10325000012202210848FDF707FB002005494870BC
:1032600007E0002202210448FDF7FEFA012001498F
:10327000487010BD1E0000200004004810B50A2050
:10328000FFF74AFFFDF7B8FE0820FFF719F9FDF731
:103290009FF90022012189021348FDF7E5FA012276
:1032A00011031148FDF7E0FA0122D1020E48FDF7A3
:1032B000DBFAFCF751FFFDF72DFCFEF775FF01204F
:1032C000FFF7EEF80020FFF7F3F8FFF78DF8FEF7B1
:1032D00025FDFEF73FFAFFF73FFFFEF7EBF9FDF79D
:1032E00009FEFCF797FF10BD0004004810B508491F
:1032F000B12000F02BF807490548FFF768FEB12020
:1033000005490870002088800120488010BD000019
:1033100098000020053700082C00002010B508494F
:10332000B32000F013F807490548FFF750FEB3201B
:1033300005490870002088800120488010BD0000E9
:1033400098000020053700082C0000208870B12864
:1033500004D0B22809D0B3281DD10DE00F4A9278CD
:103360004B681A7005220A8016E00D4A12784B68E5
:103370001A7005220A800FE00A4A12784B681A7008
:10338000094AD27A4B685A70084A92794B689A7007
:1033900007220A8000E000BF00BF7047080000203D
:1033A0003A00002004000020E40000200E0000206D
:1033B0001CB5044601210807FDF7DEFD0120FDF7DD
:1033C00063FDE1786846017121794171617981710C
:1033D0000021C17101A90020FEF7BCF80021684658
:1033E00001702178C17061784170A178817069465F
:1033F0000020FEF747F869460020FEF743F81CBDA1
:1034000010B53C4800783C490978884218D13948C1
:103410000078012814DD37484088374949888842B8
:1034200007DD344840783449487032484088488045
:1034300006E0314840782F4948702F48408848803E
:103440002C4800780300FEF794FF05040E191D2197
:103450002500012202212948FDF706FA002025490E
:103460004870488017E0002202212448FDF7FCF94B
:10347000012020494870002048800CE00A20FFF716
:10348000D7FE08E00320FFF7D3FE04E00120FFF79A
:10349000CFFE00E000BF00BF174800780300FEF732
:1034A00068FF05040E191D2125000122042113487F
:1034B000FDF7DAF9002010494870488017E0002233
:1034C00004210E48FDF7D0F901200B494870002077
:1034D00048800CE00A20FFF72DF908E00320FFF7F1
:1034E00029F904E00120FFF725F900E000BF00BF43
:1034F00010BD00001E000020220000200004004833
:1035000010B500220121C9032348FDF7ADF90021C0
:103510002248FEF777FA00212148FEF773FA0021CE
:103520002048FEF76FFA00211F48FEF76BFA0021D2
:103530001E48FEF708FD00211D48FEF704FD00218E
:103540001C48FCF7FDFD0022012109031248FDF78C
:103550008BF900220121C9020F48FDF785F9C0202F
:10356000FEF7A6FFFDF7F2FBFEF7BAFE1248007861
:10357000012805D1FFF718FE07201049087009E05F
:1035800001210807FDF7F8FCFEF79EFE0121084621
:10359000FDF78EFC10BD000000040048002C014027
:1035A0000004004000440140004801400038014050
:1035B00000440040002401402600002004000020B8
:1035C00010B50D48007807280DD00B480078052865
:1035D00009D0FFF7B9F9FEF74FFFFFF739F800F010
:1035E0003DF8FEF7D9FF04480078052801D0FFF721
:1035F000DDFA00F0A7F810BD0400002010B5032488
:1036000026E015480088012108431349088032202C
:10361000FEF772FF10480088400840000E490880FD
:103620009620FEF769FF0C480088012108430A49EB
:1036300008803220FEF760FF0748008840084000FD
:1036400005490880FF20F530FEF756FF601EC4B222
:10365000002CD6DC10BD0000202C0140174840880B
:10366000002809D0154880881E2805DDEA20144965
:10367000C8720020114948801248408800281BD099
:1036800010480078B72808D10E4880881E2804DD2D
:1036900000200D4908700B4948800A480078B92875
:1036A0000AD108488088FF212D31884204DD00209E
:1036B0000549087003494880704700002C0000202D
:1036C000E4000020320000200500002010B5022494
:1036D00013E00B480088012108430949088078203D
:1036E000FEF70AFF064800884008400004490880A9
:1036F0007820FEF701FF601EC4B2002CE9DC10BD8B
:10370000202C014010B5044621460548FEF702FD75
:1037100000BF80210248FEF722FC0028F9D010BD2E
:103720000038014010B5044621460548FEF7F2FC7A
:1037300000BF80210248FEF712FC0028F9D010BD1E
:103740000044004010B55C4800780300FEF711FE0D
:1037500008B105275279769DAEB1584800881021EE
:1037600088435649088000BF002208215448FDF7CD
:103770007BF8002210215248FDF776F800BF51482F
:103780000078002803D104204B49087006E04E4819
:103790000078002802D00320474908708AE04B488F
:1037A0000078002811D145480088102188434349FA
:1037B000088000BF002208214148FDF755F800228B
:1037C00010213F48FDF750F801E0FFF78BFA3D4824
:1037D0000078002803D104203749087009E03A48EE
:1037E0000078002805D0022039498870032032492A
:1037F00008705FE031480088102188432F49088015
:1038000000BF002208212E48FDF72EF800221021CB
:103810002B48FDF729F800BF2A480078002803D17B
:1038200004202549087008E027480078002804D1C2
:10383000012027498870204908703BE0FFF760FEAF
:1038400038E01E480088102188431C49088000BFCA
:10385000002208211A48FDF707F800221021184815
:10386000FDF702F800BF1748007801280CD1164870
:103870000078002803D003200F49087004E00120DD
:10388000134988700C49087014E012480078002829
:1038900002D0FEF721F808E00D480078002804D196
:1038A000FFF706FA05200449087003E0FEF7B6FDAD
:1038B00000E000BF00BF10BD040000202004004055
:1038C0000004004806000020260000201C00002004
:1038D000080000202B000020F8380008000000201D
:1038E000E40000008E230008DC390008E40000201A
:1038F000D40600009E230008000000000000000025
:1039000000000000000000000000000000000000B7
:1039100000000000000000000000000000000000A7
:103920000C0000000000000000000000000000008B
:1039300000C10000000000000000000000000000C6
:1039400074010020000000000000000000000000E2
:10395000B52200089122000800000000F4010020B8
:103960000000000000000000000000000000000057
:1039700000000000000000007402002000000000B1
:1039800000000000000000009521000865210008EB
:1039900000000000B4020020000000000000000051
:1039A0000000000000000000000000000000000017
:1039B00001020304010203040607080900000000D5
:1039C00000000000000000000000000000000000F7
:0C39D000000000000000000000000000EB
:04000005080000C12E
:00000001FF
